:020000040040BA
:1000000080390020050E4000010E4000010E400026
:10001000010E4000010E4000010E400000000000F3
:10002000000000000000000000000000010E400081
:10003000010E400000000000010E4000010E4000D3
:10004000010E4000010E4000010E4000010E400074
:10005000010E4000010E4000010E4000010E400064
:10006000010E4000010E400000000000C9094000E0
:10007000DD094000F1094000010E4000010E400082
:100080000000000000000000010E4000010E4000D2
:10009000010E4000010E4000010E4000010E400024
:1000A000010E4000010E4000010E4000010E400014
:1000B000010E4000010E4000010E4000010E400004
:1000C000010E4000010E4000010E400010B5054C2D
:1000D000237833B9044B13B10448AFF300800123F4
:1000E000237010BD8C08002000000000A07B4000A1
:1000F00008B5064B1BB106480649AFF30080064819
:10010000036813B1054B03B1984708BD0000000018
:10011000A07B400090080020A07B40000000000071
:1001200070B582B0064602AC022344F8043D094D86
:1001300028462146084B98474FF40012074B5A6354
:10014000EE605620064B984728462146054B9847B7
:1001500002B070BD008000408D03400000120E40D0
:1001600001000020BD034000F0B585B0254D4FF0E3
:1001700000466E635620244CA0472E635620A047AD
:10018000022704AE46F8047D204C2046204B9847B9
:1001900000250095204631462A461E4B1E4EB0478C
:1001A00001232360A8201D4CA0471F20A047D32077
:1001B000A0472846A0474020A047A120A047C8202C
:1001C000A047DA20A0473846A0478120A0478F20CB
:1001D000A047A420A047A620A047D520A047802064
:1001E000A0478D20A0471420A047DB20A047402037
:1001F000A047D920A047F120A047AF20A04705B0D5
:10020000F0BD00BF00120E40010000200080004041
:10021000BD024000404B4C00110340002101400052
:1002200000B585B000230393074B019342F210738E
:1002300002931320054B9847054801A9054B9847A1
:1002400005B05DF804FB00BF000E2707790B4000E6
:1002500000800140310D400010B50E480E4B98470C
:1002600000203E210D4B98470D4CA0470028FCD0A4
:100270000C4B98470C4A0D4B9A620D4CA047002836
:10028000FCD010200B4B98470B4B98470148024B72
:10029000984710BD000E2707CD0F4000F50A40001B
:1002A000490B4000590B4000013F132000040E4051
:1002B000690B4000910A4000B90E400010B5044699
:1002C000104B984780232360636843F00103636009
:1002D000636843F010036360636823F08003636026
:1002E00020460021084B9847636823F002036360AF
:1002F000636823F00403636020460021034B9847A2
:1003000010BD00BFD10B4000E10B4000F90B4000D5
:10031000F8B505460C46164618461449144B98473E
:1003200007462846216800221346DFF85CC0E047F4
:100330002846216808220F4B984728462168FAB2C0
:100340000D4B98472846216808220C4B98472846B1
:10035000216872080A4B984786F0010228462168F6
:1003600002F00102074B9847F8BD00BF000E2707B7
:10037000A50C4000910C4000BD0C40004D0C40000D
:100380000D0C40002D0C4000D50C400008B5436812
:1003900013F0040F05D009680F290BD8064B9847B6
:1003A00008BD0B68032B05D8012202FA03F1C943EB
:1003B000014B984708BD00BFE10B400010B5044653
:1003C000236913F4007FFBD020460F21024B98478E
:1003D0004FF08073236010BDE10B40002DE9F04128
:1003E0000C46904660B9002A0EDD8F18094E0A4D62
:1003F000306821462B6898470134BC42F8D106E0AA
:100400004FF0FF30BDE8F0810020BDE8F0814046AC
:10041000BDE8F08170090020680900202DE9F04155
:100420000E461546013802280FD892B10024DFF895
:100430003C800D4FD8F80000315D3B68984700289C
:100440000ADB0134A542F5D10AE04FF0FF30BDE8E8
:10045000F0810020BDE8F0814FF0FF30BDE8F08171
:100460002046BDE8F08100BF6C0900207009002023
:10047000F8B53848384B98470B20384CA0470C202B
:10048000A0470D20A047364B4FF400021A631A61B3
:10049000C3F8A020334C04256561C4F8A0506566FC
:1004A000C4F8905065656562C4F88050226F22F0F0
:1004B00004022267626F22F0040262674FF4801226
:1004C0001A631A61C3F8A0204FF4803222632261BC
:1004D000C4F8A0204FF480021A631A61C3F8A02068
:1004E00021480C214FF00062204B9847204F0320F9
:1004F0003946204EB04728463946B0470C20394689
:10050000B0470D203946B0470E203946B047092084
:100510004FF08051B0470A201749B04707F14057C4
:1005200055203946B0475F203946B0475B20134914
:10053000B0476566C4F8905065656562C4F8805040
:10054000236F23F004032367636F23F004036367BF
:10055000F8BD00BF50140E40F90D4000790B40006B
:1005600000120E40000E0E4000100E4041084000E8
:10057000010000081D0740000100001001000028D4
:1005800030B4012404600024446040F20225C0F825
:100590002051C0F80441C0F8144145682B43520073
:1005A000B1FBF2F14D1E2D02ADB22B43436020464C
:1005B00030BC704743681943D201D3B2194341603C
:1005C000704700BF012303FA01F10161704700BFCA
:1005D000C0F8841052004FF40043B3FBF2F3013B28
:1005E000C3F30D03C0F88C30704700BF10B44264F1
:1005F000B1F1C05F2ED008D8B1F1006F14D0B1F1C5
:10060000805F1DD0002935D135E0B1F1205F32D0B7
:1006100003D8B1F1005F27D02CE0B1F1405F2AD0C0
:10062000B1F1605F27D025E0016F046FD343214013
:1006300019400167416F446F21400B40436719E047
:10064000036F13430367436F416F0B4023EA0203B9
:1006500043670FE0036F016F0B4023EA0203036758
:10066000436F1343436705E0036F13430367436F0F
:100670001343436742605DF8044B7047416412F0D6
:10068000010F14BF4166016612F00A0F14BF016228
:10069000416212F0020F02D0C0F8801004E012F0A4
:1006A000080F18BFC0F8841041610160704700BF97
:1006B00010B44164019C0CB1416600E001660BB1CD
:1006C000016500E041650AB1016300E04163016139
:1006D00001605DF8044B704712F0100F10D0C0F8A5
:1006E000B01012F0200F14BFC0F8D410C0F8D01012
:1006F00012F0400F14BFC0F8C010C0F8C41070470B
:10070000C0F8B410704700BFC36C0164704700BFED
:1007100041647047C06C7047806C704770B582B0A0
:100720000D46440904F5001404F20774660201F052
:10073000F044B4F1005F47D009D8B4F1805F21D014
:10074000B4F1C05F2FD0B4F1006F6FD109E0B4F104
:10075000405F55D0B4F1605F52D0B4F1205F44D017
:1007600064E000F01F000124844030464FF0006137
:100770002246304B984715F0010F14BF746634665B
:10078000012054E000F01F000124844030464FF067
:1007900080512246274B984715F0010F14BF74660D
:1007A0003466012043E000F01F00012484403046FD
:1007B0004FF0C05122461F4B984715F0010F14BF50
:1007C00074663466012032E000F01F00012484408A
:1007D00030464FF000512246164B984715F0010F56
:1007E00014BF74663466012021E000F01F0101246B
:1007F000304604FA01F12A460F4B9847204616E08E
:1008000000F01F01012405F0605205EA0403009383
:10081000304604FA01F1B2F1605F14BF00220122F8
:10082000C5F38003054DA847204600E0002002B034
:1008300070BD00BFED0540007D064000B1064000E0
:10084000F0B583B007460E46154602F0F044B4F109
:10085000005F38D009D8B4F1805F1CD0B4F1C05F1C
:1008600025D0B4F1006F50D109E0B4F1405F3AD027
:10087000B4F1605F37D0B4F1205F30D045E04FF085
:1008800000613246224B984715F0010F14BF7E6677
:100890003E6601203AE04FF0805132461C4B9847AB
:1008A00015F0010F14BF7E663E6601202EE04FF06A
:1008B000C0513246164B984715F0010F14BF7E66A3
:1008C0003E66012022E04FF000513246104B98471F
:1008D00015F0010F14BF7E663E66012016E00D4B39
:1008E0009847012012E005F0605205F001030093E3
:1008F00038463146B2F1605F14BF00220122C5F3D1
:100900008003054CA047012000E0002003B0F0BDAB
:10091000ED0540007D064000B10640002DE9F8439A
:1009200081460E46144B984705464846134B984758
:10093000054017D0124F07F10C046C3754F80C3CEB
:10094000B3420AD154F8081C294206D02368304625
:10095000984754F8083C25EA0305BC4202D01034FD
:10096000002DEBD1074B1B6823B1074B1B680BB164
:1009700048469847BDE8F88315074000190740002E
:10098000B008002074090020AC080020F8B50B4C1A
:100990002468062C10D80A4F2601BD19B9516A6087
:1009A000AB600699E960013404490C6011461A46AF
:1009B000044B98470020F8BD0120F8BDA80800208E
:1009C000B0080020D906400008B502480B21024BB0
:1009D000984708BD000E0E401D09400008B50248AA
:1009E0000C21024B984708BD00100E401D09400025
:1009F00008B502480D21024B984708BD00120E4071
:100A00001D0940002DE9F84305460C4691461B4B55
:100A10009847804628464FF0FF31194B98472846A3
:100A2000184B9847E7B207F01F0301269E40630961
:100A30009B0003F1604303F56143C3F88060C3F892
:100A40008061002C09DA07F00F074FEA09195FFAF5
:100A500089F90D4A02F8079009E04FEA09195FFA8F
:100A600089F904F1604404F5614484F800931E6040
:100A700028464146054B9847BDE8F88319074000D2
:100A8000110740001507400014ED00E00907400081
:100A9000174B1A6B22F07002104318639B6E13F011
:100AA000080F09D14FF40063114901E0013B19D04F
:100AB0008A6E12F0080FF9D00D4B1A6B22F0030268
:100AC00042F002021A63986E10F008000CD14FF445
:100AD0000063074901E0013B08D08A6E12F0080F5D
:100AE000F9D07047012070470020704701207047FF
:100AF00000040E4038B111490B6A114A1A40114BDB
:100B000013430B6270470D4A136A23F45C1323F0FE
:100B1000030343F45C1343F00103090289B20B435E
:100B20001362936E13F0010FFBD0044A136A43F073
:100B30009B7343F480331362704700BF00040E4080
:100B4000FCFFC8FE02003701024B986E00F48030B3
:100B5000704700BF00040E404FF00052014B9A62F4
:100B6000704700BF00040E40024B986E00F0020078
:100B7000704700BF00040E40222820D81F280DD83F
:100B8000124B9A69012383401A40934219D00123E2
:100B900003FA00F00D4B1861002070470B4BD3F89F
:100BA00008212038012383401A4093420BD00123AF
:100BB00003FA00F0054BC3F8000100207047012044
:100BC0007047002070470020704700BF00040E40AF
:100BD00008B51520014B984708BD00BF790B4000B0
:100BE000436823F4702343604368090401F47021CF
:100BF0000B434360704700BF436823F07F4343606B
:100C0000436843EA01614160704700BF32B100EBC5
:100C10008100036B43F001030363704700EB810025
:100C2000036B23F001030363704700BF32B100EB95
:100C30008100036B43F002030363704700EB810004
:100C4000036B23F002030363704700BF042A0AD139
:100C500000EB8100036B23F008030363036B43F095
:100C600004030363704752B900EB8100036B23F068
:100C700008030363036B23F0040303637047082A2C
:100C800005D100EB8100036B43F008030363704759
:100C900000EB81010B6B23F0F0030B630B6B1A432A
:100CA0000A637047431E1944B1FBF0F0431EFE2B4C
:100CB00094BF80B24FF6FF7000B2704700EB810125
:100CC0000B6B23F47F430B630B6B43EA02220A6333
:100CD000704700BF00EB8101086B80B20863086BAE
:100CE00040EA036343EA02420A6370470F4B9942AA
:100CF00019D84900B2FBF1F2043AFF2A07D90023C0
:100D000001335208FF2A03D9072BF9D100E0002351
:100D1000110289B21B0403F4E0230B43D2B21A433D
:100D20000261002070470120704700BF801A060052
:100D300038B504460D464FF0FF338362036A8023C3
:100D40000360036B08230360202303600423036014
:100D500049682A68054B9847012814BF00200120E4
:100D60006B7A012B04BF4023236038BDED0C40009B
:100D700010B4AC2303600A684B68B2FBF3F31B09A1
:100D80005C1E4FF6FE7294420AD803628B68436081
:100D900040F20223C0F8203150230360002000E01D
:100DA00001205DF8044B7047436913F0020F1ABF2E
:100DB000C161002001207047436913F0010F1DBF7E
:100DC00083690B7000200120704700BF436913F056
:100DD000020F1DBFC1F30801C1610020012070474F
:100DE000436913F0010F05D08369C3F308030B6057
:100DF00000207047012070474FF400434360704764
:100E0000FEE700BF10B5204B204A9A4212D9204B72
:100E10001D4A9A421FD2131D1E4CE41A24F00304EB
:100E200004340023104619495A581A500433A34277
:100E3000FAD110E0144B154A9A420CD2144A1946C2
:100E4000D31A1548184433B113469C1A245843F852
:100E5000044D9942F9D100BF104B114A9A420BD26E
:100E6000131F1049C91A21F003011A1D1144002251
:100E700043F8042F8B42FBD10B4B0C4A9A600C4B6E
:100E800098470C4B9847FEE700000020A07B4000ED
:100E90008C0800208F0800209C7B40007C090020EB
:100EA0008C0800207709002000ED00E000004000E1
:100EB000D51F4000011540003D4B1B6B03F00303A1
:100EC000032B5DD8DFE803F0020E2B2B394B5B6957
:100ED00013F0800F14BF4FF400424FF4FA42364B28
:100EE0001A604DE0324B1B6A13F0807F03D0334A07
:100EF000314B1A6044E0324A2F4B1A602C4B1B6A6C
:100F000003F07003102B02D0202B04D038E02D4AC0
:100F1000294B1A6034E0294A274B1A6030E0244BF1
:100F20001B6A13F0807F03D0244A234B1A6012E01F
:100F3000234A214B1A601E4B1B6A03F07003102BCF
:100F400002D0202B04D006E01E4A1B4B1A6002E0A0
:100F50001A4A194B1A60164B1B6B03F00303022B42
:100F6000134B07BF986A996AD86AD96A124BC0F3C3
:100F70000A401A6800FB0222C9B2B2FBF1F21A6001
:100F80000B4B1B6B03F07003702B07D10A4B1A68D5
:100F90000D49A1FB020252081A607047044B196BFD
:100FA000054BC1F302111A68CA401A60704700BFAE
:100FB00000040E4010140E400C000020001BB7006F
:100FC00000093D0000127A00ABAAAAAA1A4B984267
:100FD00007D84FF08063194A136002F5007213605E
:100FE0007047174B984206D8164B144A136002F507
:100FF000007213607047144B984206D8134B0F4A87
:10100000136002F5007213607047114B984206D8C6
:10101000104B0A4A136002F50072136070470E4BC2
:10102000984294BF4FF004230C4B044A136002F51E
:1010300000721360704700BFFF2C3101000A0E40A0
:10104000FF59620200010004FF86930300020004BE
:10105000FFB3C40400030004FFE0F505000500042D
:10106000094B1B6813B9094A074B1A60064B1B68EA
:101070001A180749914204DB1046034A10601846CB
:1010800070474FF0FF307047200900208039002062
:10109000FC7F02204FF0FF30704700BF00207047F8
:1010A000F0B40D681668041F00F13C0C54F8043FBE
:1010B0006B401F0E1237C3F3074505F5897550F8CD
:1010C000277050F825503D44C3F3072707F2122735
:1010D00050F827707D40DFB207F2123750F82770C2
:1010E0003D447540644501D01E46DFE7046C6C400A
:1010F000406C43400B601460F0BC7047F0B40D6866
:1011000016680446A0F1400C636C6B401F0E12374A
:10111000C3F3074505F5897550F8277050F8255039
:101120003D44C3F3072707F2122750F827707D408C
:10113000DFB207F2123750F827703D447540043C87
:10114000644501D01E46DFE744686C4000684340B8
:101150000B601460F0BC70472DE9F04782B0054683
:101160004FF00008C246DFF8CC90844616E0664691
:10117000FC185EF80300A0640433B3F5806FF6D169
:1011800008F58068B8F5805F08D14FF0000E73460F
:101190004FF00409F046DFF8A0C018E0534609EB11
:1011A000080E08EB0507E2E7CF5C47EA04240133A9
:1011B0009342A8BF00230138F6D15EF80C006040CE
:1011C00045F80E000EF1040EBEF1480F02D048465D
:1011D0004446E9E700230193009306F148083446AA
:1011E000134F284601A96A46B847019B2360009B1C
:1011F000636008344445F4D106F580594FF0000887
:101200000B4F10E0284601A96A46B8473319019AE6
:101210009A64009ADA640834B4F5806FF2D106F566
:1012200080664E4501D04446ECE702B0BDE8F08749
:10123000A110400070694000286940000B2804D1CB
:10124000012902D10122014B1A60704714000020CD
:101250000D280CD1B1F1006F09D10023044A1360AD
:10126000044A1360044A13600122044B1A60704759
:1012700028090020240900202C0900203009002022
:10128000F0B583B005460C4600230193184B9842F5
:1012900007D11F46174E38462146B0470028FAD1DD
:1012A00017E0154B984207D11E46124D3046214695
:1012B000A8470028FAD118E0104B984209D11E46E1
:1012C0000F4D304601A9A8470028FAD1019B237091
:1012D0000BE00C4B9D4208D11E46094D304601A93A
:1012E000A8470028FAD1019B237003B0F0BD00BFCE
:1012F00000060E40B90D400000080E4000400240BC
:10130000E10D40000080024070B50C461A4B984237
:1013100007D11E46194D30462146A8470028FAD16C
:1013200020E0174B984207D11E46144D3046214607
:10133000A8470028FAD117E0124B984207D11E4661
:10134000114D30462146A8470028FAD10EE00F4B38
:1013500098420DD11E460C4D30462146A847002824
:10136000FAD107E0012070BD012070BD012070BDE1
:10137000002070BD012070BD00060E40A90D400088
:1013800000080E4000400240CD0D400000800240A9
:1013900070B582B0064602AC022344F8043D094D04
:1013A00028462146084B98474FF40012074B5A63D2
:1013B000EE605620064B984728462146054B984735
:1013C00002B070BD008000408D03400000120E404E
:1013D00001000020BD0340000D281AD1B1F1804F5B
:1013E00017D10C4B1B68022B13D10B4B1B68012B25
:1013F0000FD10A4B1B6863B9094B1A68094B1B686C
:101400009A4206D2064B1A6801321A600122034B37
:101410001A607047100000202C09002030090020BD
:1014200028090020240900200D2817D1B1F1005F00
:1014300014D10B4B1B68022B10D10A4B1B68012BDC
:101440000CD1094B1B684BB9084B1B6833B1074BD8
:101450001A68013A1A600122034B1A60704700BFF4
:10146000100000202C09002030090020280900204D
:101470002DE9F04106460A4B9847054670B1002316
:101480001C46DFF82480074F3846F15CD8F800305E
:1014900098470134A4B223B29D42F5D8BDE8F0814B
:1014A0001522400000080E406C090020F0B5A1B0E4
:1014B00002460B4668460E490E4CA04703B220AACE
:1014C0001A44002102F8801C8B420FDD0DF1FF341D
:1014D00001380DEB010313FA80F7074E074D28463C
:1014E00014F8011F33689847BC42F8D121B0F0BD11
:1014F00070794000C92140006C09002000080E40AE
:101500002DE9F04FADF5835D83B09D4B0DF5835212
:10151000043213609B4B0DF5835213609A4B98472E
:101520009A4B984720204FF02051994B98471D2007
:10153000984DA847984C20469849994A0023994EBF
:10154000B04720460421984B9847204600210122AD
:10155000964B9847964B98470B20A84704F52824AC
:1015600004F56064204601210A22DFF8C4A2D047B6
:10157000904B009320460B2101227923DFF8B4928F
:10158000C847DFF8B4824FF40063C8F80030204643
:101590000B210022884FB84720460121874EB047D3
:1015A0000D20A84704F5806420464FF000510A2220
:1015B000D047834B009320460D214FF000527923F2
:1015C000C8474FF4005BC8F800B020460D21002248
:1015D000B84720464FF00051B0470D20A84720469D
:1015E0004FF080410A22D047764B009320460D21D0
:1015F0004FF080427923C847C8F800B020460D213B
:101600000022B84720464FF08041B0470D20A84740
:1016100020464FF000610A22D0476B4B00932046D2
:101620000D214FF000624923C847C8F800B020469A
:101630000D210022B84720464FF00061B047634BB0
:1016400098474FF00008DFF8F491264608F00700AD
:1016500040F0B000C8471020C8470020C847802588
:10166000022703975A4C204603A95A4B98474FF438
:10167000001333630023E3605620574B98472046FE
:1016800003A9564B9847013DEBD108F10108B8F189
:10169000040FDBD104F5582404F50064504B1C60A2
:1016A000504A514B1A60514A514B1A603B4B0393BD
:1016B0004FF4E13304934FF4006305930920354B55
:1016C0009847204603A94B4B98474B4D2B68986889
:1016D00000214A4CA0472B6858680021A04706A863
:1016E00047490722474B984706A80DF58351043117
:1016F0000DF58352444B98470DF583530433186816
:101700000DF583521168414B98470DF58352043211
:1017100013683F4A934209D10DF5835213683D4A3D
:10172000934203D13C483D4B984702E03C483B4B39
:10173000984706A80DF5835104310DF58352394BB6
:1017400098470DF58353043318680DF583521168DB
:101750002E4B98470DF5835204321368084A934282
:1017600009D10DF583521368064A934203D12E48DE
:101770002A4B984703E02D48284B9847FAE7FEE7A5
:101780007856341256E2FD165902400071044000AA
:101790001D074000790B400000800340000E270722
:1017A00040420F0081054000C5054000B5054000DE
:1017B000210240003D124000050A40000907400098
:1017C00029144000D9134000511240006901400023
:1017D000008000408D03400001000020BD03400058
:1017E00070090020091340006C090020811240009C
:1017F00068090020710D400040040020B92040001D
:101800008079400059114000A1104000AD14400003
:10181000ECB9B84790FF55CE88794000711440006C
:10182000A0794000FD104000BC794000D479400010
:10183000D10540008D09400000E100E09113400017
:1018400081F0004102E000BF83F0004330B54FEA71
:1018500041044FEA430594EA050F08BF90EA020FDE
:101860001FBF54EA000C55EA020C7FEA645C7FEA71
:10187000655C00F0E2804FEA5454D4EB5555B8BF94
:101880006D420CDD2C4480EA020281EA030382EA05
:10189000000083EA010180EA020281EA0303362D97
:1018A00088BF30BD11F0004F4FEA01314FF4801C6A
:1018B0004CEA113102D0404261EB410113F0004F7C
:1018C0004FEA03334CEA133302D0524263EB430333
:1018D00094EA050F00F0A780A4F10104D5F1200ED1
:1018E0000DDB02FA0EFC22FA05F2801841F100012C
:1018F00003FA0EF2801843FA05F359410EE0A5F100
:1019000020050EF1200E012A03FA0EFC28BF4CF030
:10191000020C43FA05F3C01851EBE37101F00045E6
:1019200007D54FF0000EDCF1000C7EEB00006EEBF3
:101930000101B1F5801F1BD3B1F5001F0CD349087D
:101940005FEA30004FEA3C0C04F101044FEA4452D4
:1019500012F5800F80F09A80BCF1004F08BF5FEA5B
:10196000500C50F1000041EB045141EA050130BD3B
:101970005FEA4C0C404141EB010111F4801FA4F1DE
:101980000104E9D191F0000F04BF01460020B1FA33
:1019900081F308BF2033A3F10B03B3F120020CDA6B
:1019A0000C3208DD02F1140CC2F10C0201FA0CF049
:1019B00021FA02F10CE002F11402D8BFC2F1200CAE
:1019C00001FA02F120FA0CFCDCBF41EA0C01904064
:1019D000E41AA2BF01EB0451294330BD6FEA0404AD
:1019E0001F3C1CDA0C340EDC04F11404C4F1200298
:1019F00020FA04F001FA02F340EA030021FA04F3AA
:101A000045EA030130BDC4F10C04C4F1200220FA00
:101A100002F001FA04F340EA0300294630BD21FA3E
:101A200004F0294630BD94F0000F83F4801306BF04
:101A300081F480110134013D4EE77FEA645C18BFF8
:101A40007FEA655C29D094EA050F08BF90EA020F8F
:101A500005D054EA000C04BF1946104630BD91EA87
:101A6000030F1EBF0021002030BD5FEA545C05D18A
:101A70004000494128BF41F0004130BD14F58004C9
:101A80003CBF01F5801130BD01F0004545F0FE413D
:101A900041F470014FF0000030BD7FEA645C1ABF72
:101AA000194610467FEA655C1CBF0B46024650EAA9
:101AB000013406BF52EA033591EA030F41F40021D5
:101AC00030BD00BF90F0000F04BF0021704730B55B
:101AD0004FF4806404F132044FF000054FF0000130
:101AE00050E700BF90F0000F04BF0021704730B5F1
:101AF0004FF4806404F1320410F0004548BF4042C6
:101B00004FF000013EE700BF42004FEAE2014FEA1A
:101B100031014FEA02701FBF12F07F4393F07F4FF5
:101B200081F06051704792F0000F14BF93F07F4F27
:101B3000704730B54FF4607401F0004521F000416A
:101B400020E700BF50EA010208BF704730B54FF0F0
:101B500000050AE050EA010208BF704730B511F0F5
:101B6000004502D5404261EB41014FF4806404F12D
:101B700032045FEA915C3FF4DCAE4FF003025FEAAF
:101B8000DC0C18BF03325FEADC0C18BF033202EB37
:101B9000DC02C2F1200300FA03FC20FA02F001FA91
:101BA00003FE40EA0E0021FA02F11444C1E600BF30
:101BB00070B54FF0FF0C4CF4E06C1CEA11541DBFE3
:101BC0001CEA135594EA0C0F95EA0C0F00F0DEF8AE
:101BD0002C4481EA030621EA4C5123EA4C5350EA93
:101BE000013518BF52EA033541F4801143F48013E4
:101BF00038D0A0FB02CE4FF00005E1FB02E506F075
:101C00000042E0FB03E54FF00006E1FB03569CF0C9
:101C1000000F18BF4EF0010EA4F1FF04B6F5007FCF
:101C200064F5407404D25FEA4E0E6D4146EB060641
:101C300042EAC62141EA55514FEAC52040EA5E50CA
:101C40004FEACE2EB4F1FD0C88BFBCF5E06F1ED874
:101C5000BEF1004F08BF5FEA500E50F1000041EBAB
:101C6000045170BD06F0004646EA010140EA020058
:101C700081EA0301B4EB5C04C2BFD4EB0C0541EA7A
:101C8000045170BD41F480114FF0000E013C00F38F
:101C9000AB8014F1360FDEBF002001F0004170BDB3
:101CA000C4F10004203C35DA0C341BDC04F11404CC
:101CB000C4F1200500FA05F320FA04F001FA05F258
:101CC00040EA020001F0004221F0004110EBD37025
:101CD00021FA04F642EB06015EEA430E08BF20EA51
:101CE000D37070BDC4F10C04C4F1200500FA04F3F4
:101CF00020FA05F001FA04F240EA020001F0004186
:101D000010EBD37041F100015EEA430E08BF20EAF8
:101D1000D37070BDC4F1200500FA05F24EEA020E40
:101D200020FA04F301FA05F243EA020321FA04F06F
:101D300001F0004121FA04F220EA020000EBD37026
:101D40005EEA430E08BF20EAD37070BD94F0000F26
:101D50000FD101F00046400041EB010111F4801F5A
:101D600008BF013CF7D041EA060195F0000F18BF0B
:101D7000704703F00046520043EB030313F4801F47
:101D800008BF013DF7D043EA0603704794EA0C0F01
:101D90000CEA135518BF95EA0C0F0CD050EA410617
:101DA00018BF52EA4306D1D181EA030101F0004194
:101DB0004FF0000070BD50EA410606BF10461946BC
:101DC00052EA430619D094EA0C0F02D150EA0136C8
:101DD00013D195EA0C0F05D152EA03361CBF104609
:101DE00019460AD181EA030101F0004141F0FE41A8
:101DF00041F470014FF0000070BD41F0FE4141F42C
:101E0000780170BD70B54FF0FF0C4CF4E06C1CEA2B
:101E100011541DBF1CEA135594EA0C0F95EA0C0FE0
:101E200000F0A7F8A4EB050481EA030E52EA03359B
:101E30004FEA013100F088804FEA03334FF08055BC
:101E400045EA131343EA12634FEA022245EA1115E9
:101E500045EA10654FEA00260EF000419D4208BF9A
:101E6000964244F1FD0404F5407402D25B084FEA47
:101E70003202B61A65EB03055B084FEA32024FF4F3
:101E800080104FF4002CB6EB020E75EB030E22BF50
:101E9000B61A754640EA0C005B084FEA3202B6EB10
:101EA000020E75EB030E22BFB61A754640EA5C00BF
:101EB0005B084FEA3202B6EB020E75EB030E22BF4F
:101EC000B61A754640EA9C005B084FEA3202B6EB50
:101ED000020E75EB030E22BFB61A754640EADC000F
:101EE00055EA060E18D04FEA051545EA16754FEA71
:101EF00006164FEAC30343EA52734FEAC2025FEA8F
:101F00001C1CC0D111F4801F0BD141EA00014FF01D
:101F100000004FF0004CB6E711F4801F04BF0143EE
:101F20000020B4F1FD0C88BFBCF5E06F3FF6AFAE0A
:101F3000B5EB030C04BFB6EB020C5FEA500C50F19A
:101F4000000041EB045170BD0EF0004E4EEA11311D
:101F500014EB5C04C2BFD4EB0C0541EA045170BD24
:101F600041F480114FF0000E013C90E645EA060E68
:101F70008DE60CEA135594EA0C0F08BF95EA0C0F96
:101F80003FF43BAF94EA0C0F0AD150EA01347FF4DE
:101F900034AF95EA0C0F7FF425AF104619462CE7B5
:101FA00095EA0C0F06D152EA03353FF4FDAE104618
:101FB000194622E750EA410618BF52EA43067FF469
:101FC000C5AE50EA41047FF40DAF52EA43057FF4F9
:101FD000EBAE12E770B50F4E0F4D761BB61007D063
:101FE000043D0024013455F8043F9847A642F9D136
:101FF0000A4E0B4D761B05F0BDFDB61008D0043D12
:102000000024013455F8043F9847A642F9D170BD29
:1020100070BD00BF807B4000807B4000887B40001B
:10202000807B4000F0B4840743D0541E002A3ED089
:10203000CDB2034603E0621E002C38D0144603F8EC
:10204000015B9A07F7D1032C2AD9CDB245EA0525C1
:102050000F2C45EA054515D9A4F110073F0903F1F6
:10206000100606EB07161A46156055609560D56098
:102070001032B242F8D104F00F040137032C03EB05
:1020800007130DD91E462246043A032A46F8045B7C
:10209000FAD8221F22F003020432134404F003048E
:1020A0002CB1C9B21C4403F8011BA342FBD1F0BC04
:1020B000704714460346C6E700290CBF02220022DF
:1020C0004FF4806300F000B82DE9F0413C4C2568E6
:1020D0008846044616461F4615B1AB6B002B4FD001
:1020E000022E30D8002F2EDB2846214602F0AEFB10
:1020F000A38900226260A2611A0628D423F0830318
:102100009BB2022EA3812DD0B8F1000F3CD0012E3E
:1021100013D09BB203F008002A4AEA6380B2C4F8E5
:102120000080C4F81080676178B113F0030F18BF06
:102130000027A7600020BDE8F08143F001037A4248
:10214000A381A261E5E74FF0FF30BDE8F0812846AA
:10215000216902F07BFCA38923F083039BB2022E4A
:10216000A381D1D1002004F1430243F002030025F2
:102170000121A381A560226022616161BDE8F08137
:10218000284602F07FFBABE7002F08BF4FF48067C3
:10219000384602F053FD804628B1A38943F08003FE
:1021A0009BB2A381B3E74FF4806002F047FD804605
:1021B00018B9A3894FF0FF30D5E74FF48067ECE7FB
:1021C00040040020794840000EB4F0B59CB021AB2B
:1021D0000F4953F8042B019305466FF0004408683B
:1021E00002954FF402774FF6FF7602A90695ADF8F7
:1021F000147004940794ADF8166000F03BF8029B4D
:1022000000221A701CB0BDE8F04003B0704700BF58
:102210004004002020F0030110F00300C0F1000092
:1022200051F8043B00F1040C4FEACC0C6FF00002B3
:102230001CBF22FA0CF213434FF0010C4CEA0C2C99
:102240004CEA0C4CA3EB0C0222EA030212EACC1279
:1022500004BF51F8043B0430F4D013F0FF0F1FBF4C
:10226000013013F47F4F013013F47F0F18BF01309A
:10227000704700BF2DE9F04FC9B0914610930C9103
:102280000D9002F0D7FC00681590FFF7C3FF0C9C7F
:102290001890A3891A0603D52369002B01F08D80BD
:1022A00038ACA44608942B9400250024CDE91645AB
:1022B000002311932D932C931A9319930E93664632
:1022C00099F80030002B00F0F880252B00F0F58005
:1022D00009F1010201E0252B04D0144601322378D4
:1022E000002BF8D1C9EB04057DB12C9B2D9AC6F8C3
:1022F000009001332A44072B75602D922C9300F334
:10230000C28008360E9828440E902378002B00F0E7
:10231000C280002394F801808DF88F301A460F9305
:10232000099304F101094FF0FF340A9409F10109FE
:10233000A8F12003582B00F2C783DFE813F06A02EC
:10234000C503C5037102C503C503C503C503C503A2
:10235000C50314036403C5039D00C000C5037802D0
:102360007F027F027F027F027F027F027F027F0265
:102370007F02C503C503C503C503C503C503C50364
:10238000C503C503C50390026F03C5036F03C503EF
:10239000C503C503C5036803C503C5037800C503AA
:1023A000C503C503C503C5035900C503C503AF0273
:1023B000C503C503C503C503C503C503C503C503DD
:1023C000C503C503370348036F036F036F03FF02A1
:1023D0004803C503C5030803C503C5027C002103E8
:1023E000A503C503D902C5035F00C503C503DE000D
:1023F000DDF824C04CF0100CCDF824C0099CA206D6
:1024000000F15683099CE30600F1E085DDF824C065
:102410001CF0400F00F0DA85DDF840C0BCF8004049
:102420000CF1040C00250123CDF840C08CE0099D7F
:1024300045F010050995DDF824C01CF0200340F09C
:102440002C83DDF824C01CF0100240F0B885DDF8C4
:1024500024C01CF0400300F0B285DDF840C0BCF899
:1024600000400CF1040C13460025CDF840C06BE091
:102470000F9C109364420F94099D45F00405099543
:1024800099F8008052E70D980C992BAA03F02CFDC7
:1024900040B938AE36E72D9B23B10D980C992BAA85
:1024A00003F022FD0C9C0E98A38913F0400F18BF77
:1024B0004FF0FF3049B0BDE8F08F4C4625E799F862
:1024C0000080B8F12A0F09F1010001F01881A8F18C
:1024D0003003092B98BF002101F2778010F8018B9F
:1024E00001EB810103EB4101A8F13003092BF5D980
:1024F00041EAE1710A9181461AE7099DA14C1A94BB
:10250000AF068DF88F2040F1D181DDF840C00CF18D
:10251000070323F0070303F108041094D3E90045EF
:10252000DDF824C01CF0010F00F0648454EA0500BB
:1025300000F0608430234CF0020C8DF890308DF860
:102540009180CDF824C002234FF0000A8DF88FA0AF
:102550000A99002905DBDDF824C02CF0800CCDF8A9
:1025600024C054EA050040F0C7820A99002940F0CF
:10257000C382002B40F03A84DDF824C01CF0010F28
:1025800000F0348448AF302307F8413D089DEC1B30
:10259000DDF828C000256445A8BFA446CDF82CC0AE
:1025A0001495BAF1000F02D00B9D01350B95099BD4
:1025B00013F00203129302D00B9D02350B95DDF848
:1025C00024C01CF0840CCDF84CC040F092820F9DCA
:1025D000DDF82CC0CCEB050BBBF1000F40F389827A
:1025E000BBF1100F2D992C9ADFF8A0A12CDD1B97C1
:1025F000304657461025CA460C9EA1460D9C06E063
:10260000ABF1100BBBF1100F00F1080017DD013228
:102610001031072A2D912C9207604560F0DD20468D
:1026200031462BAA03F060FC00287FF43BAFABF1EE
:10263000100BBBF1100F2D992C9A38A8E7DC4C46F3
:10264000D146BA461B9F064601320BEB010C072A06
:10265000CDF8B4C02C9286E8000C00F31C849DF8E1
:102660008FA00836BAF1000F0FD02C9B01330CF16C
:10267000010C0DF18F010122072BCDF8B4C02C9372
:1026800086E8060000F39A830836129B73B12C9BF0
:1026900001330CF1020C24A90222072BCDF8B4C09F
:1026A0002C9386E8060000F395830836139D802D51
:1026B00000F0CC820A9DC4EB050ABAF1000F3BDDA5
:1026C000BAF1100F2C9B304D2BDD0A9432464FF09F
:1026D000100B2E4661460D9C0C9D06E0AAF1100AD7
:1026E000BAF1100F02F1080217DD01331031072B88
:1026F0002D912C9382E84008F0DD204629462BAA34
:1027000003F0F2FB00287FF4CDAEAAF1100ABAF173
:10271000100F2D992C9B38AAE7DC0A9C35468C4675
:1027200016460133D444072BCDF8B4C02C9386E869
:10273000200400F337830836099DED0500F1268259
:102740002C9B37600133A444072BCDF8B4C07460D0
:102750002C9300F311830836099C630749D50F9D1C
:102760000B982C1A002C44DD102C2C9BDFF81CA09D
:102770002BDD574610256246DDF83080DDF834A0A9
:102780000BE000BF2C7A4000F87940004C7A400002
:10279000103C102C06F1080615DD01331032072B12
:1027A0002D922C9337607560F2DD504641462BAA7E
:1027B00003F09AFB00287FF475AE103C102C2D9A84
:1027C0002C9B38AEE9DC9446BA460133A444072B6F
:1027D000CDF8B4C02C93C6F800A0746009DD0D9844
:1027E0000C992BAA03F080FB00287FF45BAEDDF888
:1027F000B4C00E9C0B980F9DA842ACBF241864195E
:102800000E94BCF1000F40F0C38200232C9338AE2D
:1028100056E599F80080002A7FF488AD202285E5EE
:10282000099D45F00105099599F800807EE5099D0F
:1028300045F08005099599F8008077E50024A8F116
:1028400030030F94214619F8018B01EB810103EB52
:102850004101A8F13003092BF5D90F9168E5DDF8A6
:1028600024C08DF88F204CF0100CCDF824C0099CAA
:10287000A30640F1B280109DE91D21F00701D1E9C6
:1028800000230831109114461D46002A73F1000000
:10289000C0F28B839DF88FA0012359E6099DB74CA8
:1028A0008DF88F20AF061A943FF52FAE099DED06E7
:1028B00040F15D84DDF840C0DCF800400CF1040C10
:1028C000CDF840C000252BE6DDF824C08DF88F2020
:1028D0001CF0200F00F03D84109C21680E9CE51731
:1028E0002B46109D224604351095C1E90023E7E4EC
:1028F000109C27684FF0000A8DF88FA0251D002F2F
:1029000000F0F5850A9C002C3846C0F2A785514698
:10291000224602F037FC002800F01F860A9C109522
:10292000C01BA042B8BF044624EAE475CDF828A035
:10293000CDF850A00B959DF88FA032E6DDF824C0AD
:102940004CF0400CCDF824C099F80080EEE499F8E2
:102950000080B8F16C0F4B4600F08B84099D45F068
:1029600010050995E2E4109C109D24680F94002C3A
:1029700005F10403FFF67CAD109399F80080D5E4CF
:10298000109ADDF824C07E4814681A903023151D73
:102990004FF078084CF0020C8DF890301095CDF87F
:1029A00024C000258DF891800223CDE5109A109D5A
:1029B00012688DF8B8200023012404359A460B9440
:1029C00010958DF88F300A9314932EAFEFE5099C84
:1029D0008DF88F20A3063FF54EAFDDF824C01CF024
:1029E000100F40F0D282099C670640F1CE82DDF8DC
:1029F00040C0BCF900400CF1040CE51722462B4600
:102A0000CDF840C041E799F800802B228EE4099D63
:102A100045F00805099599F8008087E4109D099C08
:102A20008DF88F20EB1D250723F0070340F18A83E3
:102A3000D3E90045CDE9164503F1080CCDF840C0B7
:102A4000DDE9160103F0D4F90128DDE9160140F0B3
:102A50005F830022002303F041FC002840F06D85D5
:102A60009DF88FA003250B95099D464F464B25F0F9
:102A700080050024099500250A94B8F1470FD8BFB6
:102A80001F46032414958CE5DDF824C04CF0200C7F
:102A9000CDF824C099F8008048E4109CE31D23F091
:102AA000070303F108051095D3E9004500234BE522
:102AB000109DEB1D23F0070303F1080CD3E900453B
:102AC000CDF840C001233FE58DF88F20B8F1000F0D
:102AD0003FF4E1AC00234FF0010C9A46CDF82CC036
:102AE0008DF8B8808DF88F300A93149364462EAF1A
:102AF0005DE5DDF8B4C0B5E5012B00F0EC80022BFC
:102B00000DF1DF0318D1DDF868C0194604F00F009D
:102B1000220942EA05720F462B091CF80010397091
:102B200052EA030014461D4607F1FF31EED1089D1D
:102B3000CDE91E23EC1B2BE5E00840EA457004F0CC
:102B40000702E908303250EA010C1F461A700446A9
:102B50000D4603F1FF33EFD1099CCDE91C01E007DD
:102B6000394640F1C180302A00F0BE80089D1F46E2
:102B70003023EC1B01F8013C0AE500BF187A400045
:102B80002C7A40000C7A4000087A4000B8F1650FBA
:102B900040F3AD80DDE9160100220023CDF81CC012
:102BA00003F092FBDDF81CC0002800F026812C9B6E
:102BB000AA4A326001330CF1010C0122072BCDF837
:102BC000B4C02C93726000F3F7820836259B119CE9
:102BD000A34203DB099DEC077FF5BEAD2C9B189D3E
:102BE000159C34600133AC44072BCDF8B4C075603C
:102BF0002C9300F348830836119D6C1E002C7FF740
:102C0000ABAD102C2C9B964D40F39781102762465C
:102C1000DDF83480DDF830A004E00836103C102CDC
:102C200040F38A8101331032072B2D922C9386E8D2
:102C3000A000F2DD404651462BAA03F055F90028CA
:102C40007FF430AC2D9A2C9B38AEE7E70F9D0B98A4
:102C5000C0EB050ABAF1000F7FF72CADBAF1100FE7
:102C60002C9B7F4D2BDD129432464FF0100B2E46DD
:102C700061460D9C0C9D06E0AAF1100ABAF1100FF6
:102C800002F1080217DD01331031072B2D912C932F
:102C900082E84008F0DD204629462BAA03F024F9FB
:102CA00000287FF4FFABAAF1100ABAF1100F2D999A
:102CB0002C9B38AAE7DC129C35468C46164601331D
:102CC000D444072BCDF8B4C02C9386E8200400F33D
:102CD00012820836EEE4002D08BF0A2C80F03881FD
:102CE00048AF303407F8414D089DEC1B50E4119C6F
:102CF000012C2C9C40F3D58101340CF101030122FD
:102D0000072C37602D932C94726000F3DB8108361A
:102D1000DDF86080159D356001349844189DCDF82C
:102D2000B480072C2C94756000F3D8810836DDE957
:102D300016010022002303F0C7FA119D002840F07D
:102D4000B9806B1E013401379844072C2C94CDF8C0
:102D5000B4803760736000F3E2800836DDF864C049
:102D6000199D0134C44427AB072CCDF8B4C02C9472
:102D700086E828007FF7EFAC0D980C992BAA03F09A
:102D8000B3F800287FF48EABDDF8B4C038AEE3E4CE
:102D90000D980C992BAA03F0A7F800283FF435AD45
:102DA000FFF780BB0D980C992BAA03F09DF8002823
:102DB0007FF478ABDDF8B4C038AEBDE40D980C9963
:102DC0002BAA03F091F800287FF46CABDDF8B4C0B7
:102DD00038AE5AE40D980C992BAA03F085F8002818
:102DE0007FF460ABDDF8B4C038AE5FE40A9C38AF66
:102DF000FFF7CEBB0223FFF7A7BB259B002B40F3B9
:102E0000E781119C149DDDF844A0AC42A8BF2C467C
:102E1000002CBA440BDD2C9B37600133A444072BF4
:102E2000CDF8B4C074602C9300F328830836149D49
:102E300024EAE4742C1B002C40F3DB80102C2C9B28
:102E4000074D40F3AD810A974FF010082F466246B8
:102E50002546DDF834B00C9C09E000BF487A4000FC
:102E6000F87940000836103D102D40F3958101336C
:102E70001032072B2D922C9386E88001F2DD584604
:102E800021462BAA03F030F800287FF40BAB2D9AD3
:102E90002C9B38AEE7E70D980C992BAA03F024F889
:102EA00000287FF4FFAA9DF88FA0DDF8B4C038AEEB
:102EB000FFF7D8BB6F1E002F7FF750AF102FB34D19
:102EC00023DD43464FF0100ADDF83480DDF830B0E2
:102ED00004E0103F102F06F1080615DD0134103311
:102EE000072C2D932C9486E82004F2DD40465946A9
:102EF0002BAA02F0F9FF00287FF4D4AA103F102F6C
:102F00002D9B2C9C38AEE9DC98460134B844072C44
:102F1000CDF8B4802C9486E8A0007FF71EAF0D9802
:102F20000C992BAA02F0E0FF00287FF4BBAADDF881
:102F3000B4802C9C38AE11E794460133A444072B8F
:102F4000CDF8B4C02C93356074607FF704AC13E700
:102F50000DF1DF0B204629460A22002303F00EFA6A
:102F600030328BF80020204629460A22002303F045
:102F700005FA04460D4654EA050C5F460BF1FF3B8B
:102F8000E8D1089DEC1BFFF703BB109DDDF840C0A6
:102F90002C68E51722462B460CF1040C002A73F12D
:102FA0000000CDF840C0BFF675AC4FF02D0A64426A
:102FB00065EB45058DF88FA00123FFF7C9BA109D79
:102FC0002C68043510950025FFF7BEBA109D2C68BB
:102FD0000435109501230025FFF7B6BA0D980C991A
:102FE0002BAA02F081FF00287FF45CAADDF8B4C0B0
:102FF00038AE149D259C2F44119DAC4242DB099DA7
:10300000E9073FD41198C7EB0A05041BAC42B8BFCF
:103010002546002D0BDD2C9B37600133AC44072B7C
:10302000CDF8B4C075602C9300F35282083625EABF
:10303000E575641B002C7FF78FAB102C2C9B534D38
:103040007FF77BAF10276246DDF83480DDF830A0D3
:1030500004E00836103C102C7FF76EAF01331032BD
:10306000072B2D922C9386E8A000F2DD40465146B6
:103070002BAA02F039FF00287FF414AA2D9A2C9B6A
:1030800038AEE7E72C9B159D3560189D75600133C0
:10309000AC44072BCDF8B4C02C9300F3FB81083669
:1030A000B0E7099DEA073FF527AE01340CF10108AE
:1030B0000123072CCDF8B4802C94376073607FF720
:1030C0004CAE2CE70D980C992BAA02F00DFF0028AE
:1030D0007FF4E8A92D9B2C9C38AE19E60D980C992D
:1030E0002BAA02F001FF00287FF4DCA9DDF8B480F0
:1030F0002C9C38AE1BE60D980C992BAA02F0F4FE1E
:1031000000287FF4CFA9DDF8B4C038AEFFF7D2BAFB
:1031100002F06EFE002840F0C280099C1C4F1D4B3F
:103120009DF88FA00A904FF0030C24F080040994BE
:10313000CDF82CC01490B8F1470FD8BF1F46644695
:10314000FFF72FBAD3E900450833CDE916451093B0
:1031500076E4DDF824C01CF0100F00F05581109CBF
:103160000E9D2368043410941D60FFF7A9B8099CD4
:10317000640640F14281DDF840C0BCF800400CF12B
:10318000040C0025CDF840C0FFF7CAB9F87940001B
:10319000147A4000107A40002C463D460A9F94461F
:1031A0000133A444072BCDF8B4C02C933560746070
:1031B0003FF714AF08361CE70D980C992BAA02F0C4
:1031C00093FE00287FF46EA9DDF8B4C038AEFDE4AC
:1031D0002C9AB749316001320CF1010C0121072A08
:1031E000CDF8B4C02C92716000F3F78008361C460D
:1031F0002CB9119D1DB9099DE8077FF5ADAA2C9B3F
:103200001899159D356001336144189D2D91072B48
:1032100075602C9300F3DE8106F108026442002CF5
:1032200040F30B81102CA34D40F34881A346102698
:103230000C46DDF83480DDF830A006E00832ABF152
:10324000100BBBF1100F40F3378101331034072B03
:103250002D942C9382E86000F0DD404651462BAA65
:1032600002F042FE00287FF41DA92D9C2C9B38AA59
:10327000E5E7099C93F8018044F0200409F1010975
:103280000994FFF753B80D980C992BAA02F02CFE65
:1032900000287FF407A9DDF8B4C038AEACE40A9D7D
:1032A000013528F0200A00F0A580BAF1470F04D1BB
:1032B0000A9D002D08BF01250A95DDE91623DDF8DA
:1032C00024C0002B4CF4807CCDF848C0C0F29C8117
:1032D000DDE91645CDE920454FF0000BB8F1660F4A
:1032E00000F09B81B8F1460F00F0A981BAF1450FBB
:1032F0000ABF0A9C0A9D651C022025A926AA29ABA3
:103300008DE821000392049302910D98DDE92023BA
:1033100000F0D6FAB8F1670F074602D0B8F1470FB0
:1033200005D1DDF824C01CF0010F00F09C81BAF13A
:10333000460F07EB050400F01C81DDE920010022A7
:10334000002302F0C1FF002840F00581299B9C4228
:1033500006D930215A1C29921970299B9C42F9D810
:10336000DB1BBAF1470F119300F0ED80B8F1650F48
:1033700040F3F281B8F1660F00F06881259C149447
:10338000119C149DAC4200F33281DDF824C01CF086
:10339000010F40F0AD8125EAE5732C464FF0670838
:1033A000BBF1000F40F0B280129D0B930995CDF850
:1033B00028B09DF88FA0FFF7F4B80D98402101F0D8
:1033C00045FC20602061002800F0BF81DDF830C09E
:1033D0004023CCF81430FEF763BF0D980C992BAA4C
:1033E00002F082FD00287FF45DA8259CDDF8B4C0C2
:1033F00038AEFDE606240A945FE7109D2C6804357C
:1034000010950025FFF78CB8DDF824C01CF0400FA4
:1034100000F08780109C0E9D2368043410941D805A
:10342000FEF74EBF0D980C992BAA02F05DFD002807
:103430007FF438A82D992C9B38AADDF844C0119C44
:10344000176001338C44072BCDF8B4C02C93546023
:103450003FF792AC02F10806FFF77EB9CDF828A03D
:10346000FEF7D8FE109520EAE07C0A9DCDF82CC02E
:10347000044614959DF88FA0FFF793B80D980C990A
:103480002BAA02F031FD00287FF40CA8DDF8B4C0AF
:1034900038AECCE40D980C992BAA02F025FD00283B
:1034A0007FF400A8259CDDF8B4C038AEAAE500BFC3
:1034B000487A4000F879400021465C4601332144B7
:1034C000072B2D912C9315605460ABDC0832B4E7C8
:1034D0000D980C992BAA02F007FD00287EF4E2AFAC
:1034E000259C1199DDF8B4C00C1B38AE9FE50A9CF1
:1034F0001497062C28BF062424EAE47CBA460A97CF
:103500001095CDF82CC0974FFFF74BB8129D099539
:103510004FF02D0A00250B938DF88FA00A95FFF729
:1035200043B8DDF840C00E9CDCF800300CF1040C10
:10353000CDF840C01C60FEF7C3BE4FF02D0A8DF8D9
:103540008FA0FFF78FBA259BDC1C19DB0A9C9C42DD
:1035500016DB149314E7234602E724EAE47CCDF853
:103560002CC00A9C10950A9014909DF88FA0FFF72C
:1035700018B83B78302B00F0AD80259D2C44DCE65C
:10358000A8F10208013B002B2593BABF5B422D2214
:103590002B22092B8DF89C808DF89D2065DC303323
:1035A00030228DF89F308DF89E2028AB119D119C04
:1035B00027AA9A1A012D1992144440F3B7800134B6
:1035C000002524EAE4731495EAE6002481460A946F
:1035D000FEF7AEBE0D980C992BAA02F085FC0028D0
:1035E0007EF460AF259C2D992C9B38AA16E6149C7E
:1035F000119D002CD4BFC4F1020401242C4424EA00
:10360000E4734FF06708CBE617991698209001F104
:10361000004121914FF02D0B60E60A9D019503209A
:1036200025A926AA29AB00900392049302910D9834
:10363000DDE9202300F044F90A9D074677E60A9C5D
:103640000194032025A926AA29ABECE7259D149512
:10365000002D0A9C63DDB4BB099DE80733D4149C9C
:1036600024EAE4739CE6299B7AE60DF1AA003E4D1C
:10367000DA1785FB0351C2EBA10101EB810402467D
:10368000A3EB440303F13000092910700B4602F14B
:10369000FF30ECDC01F130030DF1AB04D9B2844210
:1036A00002F8011C5AD90DF19D00134601E013F8F0
:1036B000011BA34200F8011FF9D10DF5907CC2EB6C
:1036C0004C03F63B72E70A9D6C1C149D2C4424EAC3
:1036D000E47365E6DDE920010022002302F0F4FD39
:1036E00000287FF44AAFC5F1010525952C4424E656
:1036F000149D6C1C24EAE4734FF0670850E6109D9B
:10370000DDF840C02D6899F801800A950CF104039A
:10371000002D10938146BEF609AEFEF704BE7CB9BB
:10372000099DE9070CD401231C4639E6DDF824C0C5
:103730001CF001037FF443AF149324EAE4732FE6F3
:103740000A9DAC1C24EAE4732AE60D9D0C232B6031
:103750004FF0FF30FEF7AEBE259B13E70DF19E0341
:1037600024E700BF407A400067666666024B13B1EB
:10377000024800F005B87047000000008149400091
:10378000014600200246034602F042BC2DE9F04FFC
:1037900003690D699D4283B0834600F38B80013D30
:1037A00001F1140400F1140A54F825205AF82530C8
:1037B0000132B3FBF2F8AA00914600925244A144B0
:1037C0000192B8F1000F3DD04FF0000E7046224636
:1037D00053468C4652F8046B1968B7B2360C07FB97
:1037E00008EE06FB08F606EB1E461FFA8EF7C71B0F
:1037F000B0B217FA81F7C0EB114000EB2740BFB21F
:1038000047EA0047914543F8047B4FEA20404FEADE
:10381000164EDFD2009A5AF80230614693B9019AE7
:10382000131F9A450CD252F8043C4BB9A2F108037D
:1038300002E01A68043B1AB99A4505F1FF35F8D33E
:10384000CBF81050584602F001F800282EDB08F1A2
:1038500001085346002254F8046B1868B1B2521A9A
:10386000360C12FA80F1C6EB104202EB214289B20B
:1038700041EA0241A14543F8041B4FEA2242EAD241
:103880005AF825200AEB850382B91A1F92450BD2FC
:1038900053F8042C42B9083B02E01A68043B1AB9F9
:1038A0009A4505F1FF35F8D3CBF81050404603B0E8
:1038B000BDE8F08F002003B0BDE8F08F00000000ED
:1038C0002DE9F04F016C9BB00446279D92469B4624
:1038D00049B1436C4B60012202FA03F38B6001F0A3
:1038E000BDFD00232364BBF1000FD94633DB002369
:1038F0002B60A54B1A4609EA0303934214D05046A5
:1039000059460022002302F0DFFC804648B3269E81
:10391000289D01233360002D00F0C9809B4828605A
:1039200001381BB0BDE8F08F269D42F20F732B606B
:10393000BAF1000F00F0A4809548289E002EF0D028
:10394000C378002B00F0B58000F10803289D2B60A0
:103950001BB0BDE8F08F01232BF000492B60CB4654
:10396000C7E719AA18AB8DE80C00204652465B4603
:1039700001F0FAFF5FEA19550A9040F08A80189F1B
:10398000199D6FF482633D449D42C0F294821F33BF
:1039900005F212425B1B09FA03F32AFA02F243EA28
:1039A0000200FEF78FF80126013DB846A1F1F8713B
:1039B00016960022774BFDF747FF6DA3D3E900234E
:1039C000FEF7F6F86CA3D3E90023FDF73FFF0646A8
:1039D00028460F46FEF786F869A3D3E90023FEF7D1
:1039E000E7F802460B4630463946FDF72FFF0646FC
:1039F0000F4602F09BFC3946079000223046002318
:103A000002F06CFC002840F02882079E162E00F27F
:103A10002182614B03EBC603D3E9000152465B46AA
:103A200002F07AFC002800F04B82013E0796002647
:103A30000E96C5EB0805013D069500F1258200258F
:103A40000895079E002EC0F21682069D0D963544FD
:103A5000002606950C96249D092D2CD8052DC4BF53
:103A6000043D2495249EA6F10203CCBF0025012528
:103A7000032B22D8DFE813F0B7039E02C0039A0499
:103A8000464A434BC9F3130000280CBF10461846A2
:103A900053E7CBF3130343F07F51CDF858805046E2
:103AA000A5F2FF3541F44011DDF8608081E73C4824
:103AB00037E7C31C4AE7002524950025656429469D
:103AC000204601F0A5FC4FF0FF390126099025950D
:103AD0002064CDF83C900B96199B002BC0F2D2804D
:103AE000079E0E2E00F3CE802B4B03EBC603D3E9CB
:103AF0000001CDE9040125990029C0F28083DDE9A8
:103B0000042359465046FEF77DF902F00FFC0546A6
:103B1000FDF7E8FFDDE90423FEF74AF802460B460D
:103B200050465946FDF790FE099A05F13003B9F168
:103B3000010F06460F46137002F1010B64D00022FC
:103B4000184BFEF735F80022002306460F4602F018
:103B5000BBFB002840F08180DDF82480099D0394A0
:103B6000C844DDE904AB05F1020928E0AFF30080A9
:103B700061436F63A787D23FB3C8608B288AC63F73
:103B8000FB799F501344D33F0000F07F497A4000F7
:103B9000687A40000000F83F787A40005C7A400084
:103BA000487A400000002440FEF702F8002200237B
:103BB00006460F4602F088FB002840F0C1835246BB
:103BC0005B4630463946FEF71DF902F0AFFB05466D
:103BD000FDF788FF52465B46FDF7EAFF02460B46BB
:103BE00030463946FDF730FE05F1300EC14509F883
:103BF00001EC4C4606460F464FF00002A74B09F178
:103C00000109D1D1A346039C32463B463046394692
:103C1000FDF71CFE06460F463246DDE904013B4631
:103C200002F05CFB40B9DDE9040132463B4602F09C
:103C30004BFB90B1EB0710D51BF8015C099A05E02E
:103C40009A4200F0288413F8015C9B46392D0BF151
:103C5000FF33F5D06A1CD2B21A7020460A9901F0DF
:103C6000FDFB079E269D731C289E00228BF80020DA
:103C70002B60002E00F025830998C6F800B01BB019
:103C8000BDE8F08F0B9D002D00F00381249E012ED6
:103C900040F3DC820C9E09F1FF37BE42C0F28983FB
:103CA000F71BB9F1000FC0F28684089D4B46089EB1
:103CB0001E440896069E20461E440121069601F0E9
:103CC00071FC064665B10698002809DD034608998F
:103CD000AB42A8BF2B46C91AC01A0891ED1A06902C
:103CE0000C9A002A1DDD0B9B002B00F05883002F3F
:103CF00011DD31463A46204601F0FCFC06463146CD
:103D00000A9A204601F058FC0A998046204601F0A4
:103D1000A5FBCDF82880DDF830E0BEEB070240F0CF
:103D20008F822046012101F03DFC80460D9800283D
:103D300005DD414620460D9A01F0DCFC80462499C1
:103D4000012940F3C18200270D98002840F0AF827E
:103D50000120069B034413F01F0300F0A180C3F170
:103D60002002042A40F3B5840899069AC3F11C0383
:103D700019441A4408911D4406920899002905DD4A
:103D80000A99089A204601F003FD0A90069A002A33
:103D900004DD4146204601F0FBFC80460E9B002BD3
:103DA00040F06A82B9F1000F40F3A6820B98002818
:103DB00040F088800B9D0A9FDDF824B006E039466C
:103DC00020460A22002301F053FB074638464146AD
:103DD000FFF7DCFC30300BF805000135A945EEDCBF
:103DE000DDF824B00A978246B9F1010FACBFCB448D
:103DF0000BF1010B00250A990122204601F0C8FCB5
:103E000041460A9001F022FD002840F309831BF887
:103E1000012C099905E0994200F08B8213F8012CDE
:103E20009B46392A0BF1FF33F5D001321A70414617
:103E3000204601F013FB002E3FF40FAF2DB1B54229
:103E400003D02946204601F009FB3146204601F007
:103E500005FB02E701260E96EBE50798FDF742FE0B
:103E600032463B4602F030FA00287FF4CEAD079E82
:103E7000013E0796C9E5079E089DAD1B0895754252
:103E800000260C950D96E6E56D42002608950696EF
:103E9000D7E50C9F089D0B9E14E700BF000024404F
:103EA0001C23DDF820E006989E441844CDF820E05D
:103EB0001D44069061E7A748401B0AFA00F070E530
:103EC0000E90B6E5002D05DD31462A46204601F06C
:103ED0005FFC0646002F40F0E8823746099D0998AE
:103EE0004D4408950AF001050B95DDF82890451C16
:103EF0000AE001F0BDFA394606460A2220460023B0
:103F000001F0B6FA0746013541464846FFF73EFC48
:103F100031468346484601F099FC414603903A46B3
:103F2000204601F0B7FCC268691E03460BF1300A57
:103F30000691002A40F0938119464846029301F009
:103F400085FC029B024619462046029201F086FA41
:103F5000029A2AB9249B1BB90B98002800F0918380
:103F6000039B002BC0F2348205D1249818B90B9919
:103F7000002900F02D82002A00F3AB82DDF820E05A
:103F800005F801AC7545AB4600F0B38249460A22FC
:103F90000023204601F06CFABE428146314620469D
:103FA0004FF00A024FF00003A3D101F061FA064678
:103FB0000746A8E700260B96079EDDF894E0B64476
:103FC0000EF10109B9F1000FCDF83CE04E4640F387
:103FD00050810021172E61640AD9012204235B005D
:103FE00003F11400B042114602F10102F7D96164F5
:103FF000204601F00DFA0E2E099020643FF66CADBC
:10400000002D3FF469AD079D002DCDE912AB40F3C3
:104010001B82514B05F00F0203EBC2032D11D3E9B4
:104020000067EB0640F1CD814C4B50465946D3E931
:104030000823FDF7E7FECDE9100105F00F054FF06D
:1040400003088DB1DFF814A130463946EE0705D5D7
:10405000DAE9002308F10108FDF7AAFD6D100AF165
:10406000080AF3D106460F46DDE9100132463B4609
:10407000FDF7C8FE82468B460E9D45B15046594617
:104080000022374B02F02AF9002840F0A98240466E
:10409000FDF728FD52465B46FDF78AFD0022314BB5
:1040A000FDF7D4FB0646A1F15077B9F1000F00F0FF
:1040B0005A81079D1795C8460B9D002D00F022825E
:1040C000254B294903EBC80353E902230020FDF7E0
:1040D00099FE32463B46FDF7B7FBCDE91001594644
:1040E000504602F023F90546FDF7FCFC02460B465C
:1040F00050465946FDF7A8FB3035099ECDE904012D
:10410000EDB23570DDE91001DDE9042306F1010BA4
:1041100002F002F9002840F0A982DDE90423002022
:104120000F49FDF791FB02460B46DDE9100102F055
:10413000F3F8002840F0A082B8F1010F40F380812D
:10414000B044CDF85090A246C146DDE90467DDE9F0
:10415000104519E0EEFBFFFF787A4000407B4000FD
:104160000000F03F00001C400000E03F0020A84994
:10417000FDF76AFB22462B4602F0B0F8002840F01B
:104180007982CB4500F05981204629460022A14B77
:10419000FDF70EFD00229F4B04460D463046394682
:1041A000FDF706FD0F46064602F0C0F88046FDF713
:1041B00099FC02460B4630463946FDF745FB08F1AF
:1041C00030085FFA88F822462B460BF8018B06462A
:1041D0000F4602F083F832463B460028C6D0179EB1
:1041E0000796544639E500260B96259800283CDDB5
:1041F00006460F908146ECE601260B96F5E7B9F1ED
:10420000000F3FF77CAC40F0C6800022824BDDE916
:104210000401FDF7CDFC52465B4602F073F8C84638
:104220004E4600287CD0259DDDF824B0ED4307954F
:104230004146204601F012F9002E7FF406AE0CE54F
:104240000A99204601F056FA0A906AE5169D002D5B
:1042500000F0B78103F233430C9F089D27E5014628
:10426000204601F0FBF801227AE6012625960F96FA
:10427000B14600216164BBE60A98414601F0E6FAC6
:104280000028BFF68FADDDF81CE00A990EF1FF3E65
:1042900020460A220023CDF81CE001F0E9F80A903C
:1042A0000B98002840F00782DDF83C907AE5D8F8BA
:1042B000103008EB8303186901F026F9C0F12000E3
:1042C00047E50998FFF72DBBBAF1000F7FF43BAD2E
:1042D000CBF31303002B40F07B812BF000473F0D05
:1042E0003F05002F3FF430AD089A069B01320133A1
:1042F00008920693012727E5249902297FF756ADF6
:10430000B9F1000F8FD141464B460522204601F0FE
:10431000AFF8804641460A9801F098FA002882DDFD
:10432000079D01350795099D31232B7005F1010B80
:104330007EE7079809993123013007900B7076E5E5
:10434000A346039C89E44046FDF7CCFB02460B469E
:1043500050465946FDF72CFC0022304BFDF776FA0B
:104360000646A1F150775046594600222A4BFDF7E8
:104370006BFA32463B4682468B4601F0CDFF002861
:1043800040F0BC80324607F100435046594601F0E8
:10439000A5FF002854D04FF00008464643E70A998D
:1043A0000C9A204601F0A6F90A90BAE401260B9671
:1043B00002E60C9D0D9E0C977B1B1E440D9600275C
:1043C0006FE4DDE912014FF00208CDE9100138E693
:1043D000002ACDF82890D94611DD0A9901222046FD
:1043E00001F0D6F941460A9001F030FA002840F376
:1043F0005B81BAF1390F00F01A8109F1310A069B8D
:10440000354683F800A003F1010B3E460FE500BFDF
:104410000000F03F000024400000144000001C4059
:1044200003D11AF0010F7FF4F2AC5B469B46013BCF
:104430001BF8012C302AF9D0F9E4DDF850905446ED
:10444000DDE912ABFFF748BB079E7542002D00F077
:10445000C280A34B05F00F0203EBC203D3E9002394
:10446000DDE91201FDF7A4FB2D1182468B4600F019
:104470002D819C4E4FF00208EA0705D5D6E90023AE
:1044800008F10108FDF794FB6D1006F10806F3D161
:1044900082468B46F0E5079E099D30222A70013640
:1044A000312207961A70FFF7D8BB7168204600F0DA
:1044B000AFFF33699A1C0546920006F10C010C30DF
:1044C00000F0A8FE20462946012201F061F90746C6
:1044D00004E5BAF1390FCDF8289000F0A880069DC8
:1044E0000AF101032B703546069E06F1010B3E468C
:1044F0009DE43546CDF828903E467CE44FF0000818
:1045000046460DE7764908F1FF3501EBC501324615
:104510003B46D1E900011095FDF74AFBCDE91401B6
:104520005946504601F002FF0546FDF7DBFA024608
:104530000B4650465946FDF787F9DDF824E0303543
:10454000B8F1010F06460F468EF800500EF1010B30
:104550001ED0099D6B1E03EB080A0022624BFDF77B
:1045600027FB0F46064601F0E1FE8046FDF7BAFA4A
:1045700008F1300802460B4630463946FDF764F92B
:1045800005F8018F5545E8D1109D06460F46AB440E
:104590000022564BDDE91401FDF758F932463B463F
:1045A00001F09CFE00284DD0179E07961BF8015C79
:1045B000099AFFF74BBB089E0023C9EB0605FFF7DE
:1045C00076BB189B0C9F089DC3F13603FFF76FBBAA
:1045D0005746FFF7B9BBDDE912AB4FF002084BE5D8
:1045E000B9F1000F3FF4AFAE0F9E002E7FF728AF5A
:1045F00000223D4B50465946FDF7DAFA824608F153
:1046000001008B46FDF76EFA02460B4650465946AE
:10461000FDF7CEFA0022364BFDF718F9079DDDF8BD
:104620003C80013D0646A1F15077179544E535469B
:10463000069B069E09993922327003F1010B3E4612
:10464000FFF7EFBBDDE9142300202849FDF7FCF854
:1046500032463B4601F060FE00283FF4F1AE5B4677
:104660009B46013B1BF8012C302AF9D0179D07957A
:10467000FFF7F3BA45465446179E0796099AFFF787
:10468000E5BABAF1390FCDF82890D0D0039B354662
:10469000002B069EC8BF0BF1310A86F800A006F178
:1046A000010B3E46FFF7C3BB7FF4A9AE1AF0010F22
:1046B0003FF4A5AE9DE6314620460A220023DDF8F0
:1046C0003C9000F0D5FE0646FFF76CBB4FF00208A9
:1046D000D2E43FF452ABC3F13C03FFF7E2BB00BFAF
:1046E000787A4000407B4000000024400000E03F1A
:1046F00000001C40AFF300808B899AB22DE9F04195
:104700000D46110780463CD46A6843F40063002AD2
:10471000AB8159DDAC6A002C4BD09BB203F48052C4
:10472000002192B2D8F80060C8F80010002A4FD0DB
:104730002A6D5F0705D569682B6B521A0BB1EB6BBD
:10474000D21A4046E9690023A047441C4AD0AA89EE
:104750002B692B6022F400639BB200226A60DA04AA
:10476000AB814CD4296BC8F8006011B305F140034C
:10477000994202D0404600F069F900202863BDE864
:10478000F0812E69AEB12C682E6091070CBF6B6969
:104790000023A41BAB600AE0324623466F6AE96936
:1047A0004046B8470028C0EB0404064404DD002C52
:1047B000F2DC0020BDE8F081AB8943F04003AB811F
:1047C0004FF0FF30BDE8F081EA6B002AA2DCF0E791
:1047D00001234046E969A047431C02461ED0AB892D
:1047E000AC6AA6E7D8F800305BB9A9896B6021F400
:1047F00000639BB22A69AB81DB042A60B2D52865CD
:10480000B0E71D2B01D0162B19D1AA892B692B607B
:1048100022F400620023AA816B60A3E7D8F800307D
:10482000002BDCD01D2B07D0162B05D0AB8943F015
:104830004003AB81BDE8F081C8F80060B9E7AB89FF
:1048400043F04003AB81BDE8F08100BF10B50446E2
:1048500082B008B1836B53B1B1F90C0008B902B052
:1048600010BD204602B0BDE81040FFF745BF0191E2
:1048700000F008F80199EFE7014900F0B5B900BF71
:10488000BD6140002DE9F04F846B83B00746002CDA
:1048900065D145683348F8630423032107F53B726B
:1048A000C7F8E412C7F8E822C7F8E04205F15C0057
:1048B000AB812C606C60AC606C66EC812C616C61CF
:1048C000AC6121460822FDF7ADFBBE68DFF898B069
:1048D000DFF898A0DFF89890DFF89880ED61012369
:1048E0000922C5F820B0C5F824A0C5F82890C5F85D
:1048F0002C802146F381B28134607460B4607466A8
:1049000034617461B461082206F15C000193FDF723
:1049100089FBFD68F66112200222C6F820B0C6F8B5
:1049200024A0C6F82890C6F82C802146A881EA81E8
:104930002C606C60AC606C662C616C61AC6105F1E4
:104940005C000822FDF76EFB019BED61C5F820B00D
:10495000C5F824A0C5F82890C5F82C80BB6303B027
:10496000BDE8F08F79484000655E4000895E4000F8
:10497000C15E4000E15E4000704700BF704700BF6D
:1049800038B5094D094C641BA41018BF05EB84050C
:1049900005D0013C55F8043D9847002CF9D1BDE8FD
:1049A000384003F0F1B800BF947B4000987B400092
:1049B000F8B5234D0F46044600F026FDAB685E684F
:1049C00026F00306F11B01F6EF7121F47F6121F05F
:1049D0000F01A1F58057B7F5805F07DB2046002166
:1049E00001F02EFAAB683344984204D0204600F020
:1049F0000DFD0020F8BD2046794201F021FA01307A
:104A00000DD0104BAA681968F61B46F00106204627
:104A1000C91B5660196000F0F9FC0120F8BD204662
:104A2000002101F00DFAAB68C21A0F2ADEDD064D37
:104A300004492D6842F00102401B5A600860D5E726
:104A40007C04002040090020880800202DE9F04166
:104A50000D460646002955D000F0D6FC55F8041C3A
:104A6000DFF874C121F00103A5F10804E218DCF8B5
:104A700008005768904227F0030769D011F0010140
:104A8000576032D00021D0194068C00706D43B449B
:104A9000906800294ED0D268C260906043F0010255
:104AA0006260E350E1B9B3F5007F2DD35A0A042ABE
:104AB0006AD89809383041000CEB810C4649DCF883
:104AC0000820624566D0516821F003018B4202D272
:104AD00092689445F7D1D368E360A2609C60D4608B
:104AE0003046BDE8F04100F091BC55F8085C641B0D
:104AF0000CF10808A06840452B4443D0E568C56028
:104B0000A860C0E7BDE8F081DB080CEBC30201251B
:104B1000DCF804009168A1609B1005FA03F31843C8
:104B2000E260CCF8040094603046CC60BDE8F0410F
:104B300000F06CBC294DA842ADD143F00102CCF885
:104B40001440CCF81040E060A0606260E350C7E71A
:104B50001F44CB0707D455F8083CE41A1F44A26849
:104B6000E368D3609A601E4B1B6847F001029F42C6
:104B70006260CCF80840B3D31A4B30461968FFF78F
:104B800017FFADE701217EE7142A0CD802F15B0084
:104B9000410091E74B688010012505FA00F00343BE
:104BA0004B60134698E7542A03D8180B6E30410027
:104BB00082E7B2F5AA7F03D8D80B773041007BE7B4
:104BC00040F254518A4203D8980C7C30410073E77C
:104BD000FC217E2070E700BF7C04002084040020BC
:104BE000840800203C0900202DE9F04110F53877B9
:104BF00088461AD000267D68BC68013D0FD4A38981
:104C0000012B05F1FF3506D9B4F90E3001332046EA
:104C100001D0C04706436B1C04F16804EFD13F6824
:104C2000002FE8D13046BDE8F0813E463046BDE871
:104C3000F08100BF0048704744040020024B014649
:104C4000186800F003B800BF400400202DE9F04FC1
:104C500001F10B05162D83B0064627D935F007055F
:104C600027D4A94225D8304600F0CEFBB5F5FC7F0D
:104C700026D2C14F4FEAD50C07EBCC03DC689C422F
:104C800000F0D2816368E268A16823F00303234443
:104C900030465D68CA6045F0010591605D6000F0D6
:104CA000B5FB0834204603B0BDE8F08F1025A942BB
:104CB000D9D900240C232046336003B0BDE8F08F1F
:104CC0005FEA552C00F08A80BCF1040F00F260818D
:104CD0004FEA951C0CF1380C4FEA4C01A64F07EB3C
:104CE0008101CC68A14205D10CE0002B7ADAE4689E
:104CF000A14207D0626822F00302531B0F2BF4DDA0
:104D00000CF1FF3C0CF1010C9B4B3C6903F1080ECC
:104D1000744500F07E81616821F003014A1B0F2A6F
:104D200000F36481002AC3F814E0C3F810E06ADAE3
:104D3000B1F5007F80F03A81C90803EBC1004FEA6A
:104D4000A1085A688168A1604FF0010909FA08F8C2
:104D500048EA0202E0605A608460CC604FEAAC032B
:104D60000120984090425BD8024206D12CF0030CFF
:104D7000400002420CF1040CFAD007EBCC08444688
:104D8000E146E3689C4207D145E1002A80F2568162
:104D9000DB689C4200F03F81596821F003014A1B07
:104DA0000F2AF2DD1C46D3F80CC054F8088F5919AD
:104DB00045F0010942F00105C3F804903046C8F8F7
:104DC0000CC0CCF8088079613961C1F80CE0C1F8F9
:104DD00008E04D608A5000F019FB63E77E214FF038
:104DE0003F0C7BE72244E3685068A16840F001056E
:104DF000CB6030469960556000F008FB08342046CF
:104E000003B0BDE8F08F214430464B6843F0010306
:104E10004B6000F0FBFA0834204603B0BDE8F08F89
:104E2000BC68636823F00309A94504D3C5EB0903F3
:104E30000F2B00F39180514B514A196813680133CD
:104E400005EB010A04EB090B00F061810AF5805AB9
:104E50000AF10F0A2AF47F6A2AF00F0A30465146F7
:104E6000019200F0EDFFB0F1FF3F8046019A00F0A3
:104E70000081834500F2FA80DFF810C1DCF80030D1
:104E8000C3455344CCF8003000F04A8112683C49D5
:104E900001321BBFCBEB080B5B44C1F80080CCF8A0
:104EA000003018F0070300F01381C3F10802C3F5C6
:104EB000805390440833C244CAF30B0ACAEB030A76
:104EC00051463046CDF804C000F0BAFF431CDDF86F
:104ED00004C000F03581C8EB0002524442F00102E8
:104EE000DCF80030C7F808805344BC42C8F80420FE
:104EF000CCF80030DFF894A015D0B9F10F0F40F2D4
:104F0000EA806168A9F10C0222F0070201F0010EAB
:104F1000A118052042EA0E0E0F2AC4F804E04860EA
:104F2000886000F21181174ABC6811688B4288BF03
:104F30001360154A11688B4288BF1360626822F0C3
:104F400003029542C5EB020301D80F2B04DC304667
:104F500000F05CFA0024A5E6621943F0010345F075
:104F6000010565603046BA60536000F04FFA0834BE
:104F7000204603B0BDE8F08F7C0400203C090020EF
:104F8000880800203809002034090020400900204A
:104F9000BCF1140F61D9BCF1540F00F28F804FEABD
:104FA000153C0CF16E0C4FEA4C0197E64B0A042BB2
:104FB00058D9142B00F2AE8003F15B02500007EBCE
:104FC0008000DFF8BC818368834200F08A805A68E1
:104FD00022F00302914202D29B689842F7D1D9682D
:104FE0007A68E160A3608C60DC60B7E6611942F02A
:104FF000010745F001056560304659611961C1F846
:105000000CE0C1F808E04F608A50083400F0FEF967
:1050100048E65A68A2E609F1010919F0030F04F104
:1050200008047FF4AEAE2DE004F108036469A342E6
:1050300008BF0CF1020C3FF467AE23E619441C468E
:105040004868DB6854F8082F40F001054D60304691
:10505000D3609A6000F0DAF924E60CF15B0C4FEAB9
:105060004C013BE68A0938325000A8E7BC423FF4C5
:1050700003AFBC68626822F0030262E7D8F80080E0
:1050800098457BD11CF0030FA8F108030CF1FF3CFD
:10509000F4D17B6823EA00037B60400098423FF62E
:1050A000BFAE00283FF4BCAE0342CC467FF465AEF1
:1050B000400003420CF1040CFAD05EE6BCF5AA7F76
:1050C0001AD84FEAD53C0CF1770C4FEA4C0105E6B3
:1050D0004FF48053EFE60123C8F804304446002221
:1050E0002FE791100120D8F8042000FA01F10A43BB
:1050F000C8F80420194674E740F254539C451BD865
:105100004FEA954C0CF17C0C4FEA4C01E6E50AF1B4
:10511000100AA3E6542B1FD80A0B6E3250004EE73C
:10512000CBF30B0100297FF4B1AE0AEB0901BA6899
:1051300041F001015160F6E6FC214FF07E0CCDE517
:1051400001224FF0000ACBE604F108013046FFF7D8
:105150007DFCDAF80030E6E6B3F5AA7F03D8CA0B87
:10516000773250002BE740F25452934203D88A0C16
:105170007C32500023E7FC207E2220E77B688CE70E
:105180007C040020830770B4C9B23FD0541E2AB3F8
:1051900003788B4223D0431C04E0FCB104788C429A
:1051A0001DD0144613F0030F184604F1FF3203F12B
:1051B0000103F2D1032C14D8651E4CB303788B4243
:1051C0000DD0421C002302E004788C4207D0AB4291
:1051D000104603F1010302F10102F5D1002070BC79
:1051E000704741EA0126034646EA0646184604335C
:1051F00002687240A2F1013525EA020212F0803FF6
:10520000DAD1043C032C1846F0D8D5E71446D1E790
:105210002046E4E7844641EA000313F003036DD11E
:10522000403A41D351F8043B40F8043B51F8043B69
:1052300040F8043B51F8043B40F8043B51F8043B70
:1052400040F8043B51F8043B40F8043B51F8043B60
:1052500040F8043B51F8043B40F8043B51F8043B50
:1052600040F8043B51F8043B40F8043B51F8043B40
:1052700040F8043B51F8043B40F8043B51F8043B30
:1052800040F8043B51F8043B40F8043B51F8043B20
:1052900040F8043B51F8043B40F8043B51F8043B10
:1052A00040F8043B403ABDD2303211D351F8043BB0
:1052B00040F8043B51F8043B40F8043B51F8043BF0
:1052C00040F8043B51F8043B40F8043B103AEDD25F
:1052D0000C3205D351F8043B40F8043B043AF9D2B0
:1052E000043208D0D2071CBF11F8013B00F8013B83
:1052F00001D30B8803806046704700BF082A13D390
:105300008B078DD010F003038AD0C3F10403D21AA7
:10531000DB071CBF11F8013B00F8013B80D331F8DB
:10532000023B20F8023B7BE7043AD9D3013A11F85B
:10533000013B00F8013BF9D20B7803704B784370C6
:105340008B788370604670478842F0B410D98C180F
:10535000A0420DD28518531E42B121462A4611F8AB
:10536000014D02F8014D013B5C1CF8D1F0BC7047C7
:105370000F2A3FD940EA01039B073FD1A2F1100752
:105380003F0900EB071610360C46034625681D60E2
:1053900065685D60A5689D60E568DD601033B342B7
:1053A00004F11004F2D17B1C02F00F0C1B01BCF1C4
:1053B000030F1944034423D90E461D466446043C9A
:1053C00056F8047B45F8047B032CF8D8ACF10404B0
:1053D00024F00304043402F0030223442144002A8D
:1053E000C4D01A4411F8014B03F8014B9342F9D190
:1053F000F0BC70470346002AF3D1B7E70346F0E755
:105400006246002AEDD1B1E7704700BF704700BF88
:10541000C26C70B505460C464AB152F8240080B102
:10542000016842F8241000220261C26070BD21228E
:10543000042100F041FEE86402460028EDD100207E
:1054400070BD012101FA04F6721D2846920000F099
:1054500033FE0028F3D044608660E4E731B1C36CCA
:105460004A6853F82200086043F82210704700BFD2
:105470002DE9F047D1F8108082B08946824601F1CB
:10548000140500242F68BEB23F0C02FB063602FB57
:1054900007F303EB16430134B6B206EB0346A0450F
:1054A00045F8046B4FEA1343ECDC53B1D9F80820FC
:1054B00090450ADA09EB880108F101024B61C9F84D
:1054C0001020484602B0BDE8F087D9F804100193D7
:1054D00001315046FFF79CFFD9F81020023209F144
:1054E0000C01044692000C30FFF794FEDAF84C20D1
:1054F000D9F80410019B52F82100C9F8000042F8C5
:105500002190A146D6E700BF030C1B04B3B90004E9
:10551000102310F07F4F04BF0002083310F0704FCB
:1055200004BF0001043310F0404F04BF8000023379
:10553000002807DB420003D4202070470023E8E75F
:10554000581C704718467047036813F0070207D0CD
:10555000D90720D49A0720D49B0803600220704703
:1055600099B209B91B0C102213F0FF0F04BF1B0ADC
:105570000832190704BF1B090432990704BF9B08AE
:105580000232D90704D45B0801D1202070470132D0
:10559000036010467047002070475B0803600120DD
:1055A000704700BF10B50C460121FFF731FF012203
:1055B0004461026110BD00BF2DE9F04F0D69D2F8C2
:1055C00010904D4585B00C46924604DA2A46544662
:1055D0004D468A469146A368616805EB09079F42DC
:1055E000C8BF0131FFF714FF00F1140606EB87086E
:1055F0004645019005D23346002043F8040B9845F8
:10560000FBD80AF1140C0CEB89091434CC45009436
:1056100004EB85055BD2CDF808800397C8465CF89B
:10562000043B9CB224B3009A33464FF0000900E0DB
:105630000B4652F8047B19681FFA87FB1FFA81FAA0
:10564000380C090C04FB0BA7B94404FB001000EB59
:10565000194019461FFA89F949EA004795424FEA6D
:10566000104941F8047BE3D8C3F804905CF8043C8B
:105670005FEA134924D0D6F800A0009B504631467B
:105680004FF0000B00E011461A88000C09FB0200E5
:1056900083441FFA8AFA0A464AEA0B4042F8040B8E
:1056A00053F8047B48684FEA174A84B209FB0A4A58
:1056B0000AEB1B4A9D424FEA1A4BE4D8C1F804A0FA
:1056C000E04506F10406AAD8DDF80880039F002F04
:1056D0000ADD58F8043CA8F104081BB104E058F8AE
:1056E000043D0BB9013FFAD1019B18461F6105B07B
:1056F000BDE8F08F12F003032DE9F0411446074690
:105700000E462CD1A4101CD0BD6C002D30D04FF013
:10571000000804E0641014D02868A8B10546E30727
:10572000F8D5384631462A46FFF746FFAEB17268D3
:10573000FB6C641053F82210316043F82260064677
:10574000EAD13046BDE8F081384629462A46FFF7BF
:1057500033FF2860C0F80080E0E70646DAE75D1E08
:105760000A4A002352F82520FFF782FE0646C9E7C1
:1057700001213846FFF74CFE40F27121012200233F
:10578000416102610546B8640360C0E7687B400080
:105790002DE9F84F93460A698B684FEA6B1A0AEBBA
:1057A000020909F101069E420F468046496804DD60
:1057B0005B009E4201F10101FADC4046FFF728FE42
:1057C000BAF1000F00F1140409DD00231A46254642
:1057D0000133534545F8042BFAD104EB83043A69AD
:1057E00007F114031BF01F0B03EB820C21D0CBF14C
:1057F000200A002200E02C461968254601FA0BF128
:105800000A4345F8042B53F8042B634522FA0AF2A5
:10581000F1D362600AB109F10206D8F84C307A6817
:10582000013E53F822100661396043F82270BDE84A
:10583000F88F53F8042B44F8042B9C45EDD953F80A
:10584000042B44F8042B9C45F3D8E6E702690B6966
:10585000D21A10B415D19B001430143119440344EA
:1058600001E0984211D253F8042D51F8044DA242A0
:10587000F7D0944294BF01204FF0FF305DF8044B05
:10588000704710465DF8044B704700205DF8044BEC
:10589000704700BF2DE9F0470D46044611462846E3
:1058A0001646FFF7D3FF071E55D04EDB4FF000081A
:1058B00069682046FFF7ACFD2F693269C0F80C809B
:1058C0001435143600F1140305EB870C06EB82083F
:1058D000002156F8042B55F8044B1FFA82F911FAEF
:1058E00084FA110CC1EB1441C9EB0A0201EB22410D
:1058F00092B242EA0142B04543F8042B4FEA2141FB
:105900002C46E6D8AC45984615D954F8046B11FAE4
:1059100086F1360C06EB214689B241EA0642A445DF
:1059200043F8042B4FEA2641EFD8EB43634423F0BE
:10593000030304334344043B22B953F8042D013FCD
:10594000002AFAD00761BDE8F0872B464FF0010826
:1059500035461E46ACE720463946FFF759FD012380
:1059600047610361BDE8F0872DE9F04383B0012171
:105970001D46C3F30A5614460A9FFFF749FDC5F3B7
:10598000130380460EB143F48013019324B302A89D
:1059900040F8084D6846FFF7D7FD002835D19DE84F
:1059A0000C00C8F81420002B0CBF01240224C8F8F6
:1059B0001830C8F81040DEB908EB8403A0F232407A
:1059C00038601869FFF7A0FD0B9BC0EB441018600E
:1059D000404603B0BDE8F08301A8FFF7B5FD012400
:1059E000019BC8F814302030C8F81040002EE3D0D6
:1059F000A6F2334909EB00033B600B9BC0F1350075
:105A00001860404603B0BDE8F0839DE80C00C0F18B
:105A1000200103FA01F10A43C3400193C8F814209E
:105A2000C1E700BF2DE9F04F0C4683B09046814698
:105A3000002900F0E280FFF7E7FC08F10B0654F8BC
:105A4000043C162E23F00305A4F108074BD81021BF
:105A50000E46B0454CD88D4278DADFF890B3DBF8CB
:105A600008E07819864500F0CE80426822F0010CEB
:105A70008444DCF804C01CF0010F7AD000221046E8
:105A8000DB0700F1928054F8083CC3EB070ADAF810
:105A9000043023F003032B4488B3704500F0ED80FD
:105AA00002EB030E8E452ADBC36882685746D3603B
:105AB0009A6057F8081FDAF80C30CB602A1F242AA6
:105AC000996000F22681132A40F2B3802368CAF855
:105AD00008306368CAF80C301B2A00F230810834A1
